:1000000026C033C032C031C030C0F2C02EC02DC0B7
:100010002CC02BC02AC029C028C027C026C0000081
:10002000000037000000000038000000000036002B
:10003000020202020202020202020102040810206D
:100040002004100801020000040000000000112438
:100050001FBECFEDCDBF20E0A0E6B0E001C01D92F5
:10006000A237B207E1F70ED137C2CACF823089F08A
:1000700018F4813051F00895833019F0843009F07C
:1000800008958CB58F7D8CBD08958AB58F778ABD14
:1000900008958AB58F7DFBCFCF93DF93282F30E073
:1000A000F901EC5BFF4F8491F901E65CFF4FD491BD
:1000B000F901E05DFF4FC491CC2399F08111D6DFA7
:1000C000EC2FF0E0EE0FFF1FE65DFF4FA591B4911E
:1000D000EC91ED2381E090E009F480E0DF91CF9195
:1000E000089580E090E0FACF1F93CF93DF93282FFD
:1000F00030E0F901EC5BFF4F8491F901E65CFF4FC2
:10010000D491F901E05DFF4FC491CC23A1F0162FEB
:100110008111ACDFEC2FF0E0EE0FFF1FEC5DFF4F25
:10012000A591B4918FB7F894EC91111108C0D095B6
:10013000DE23DC938FBFDF91CF911F910895DE2BDB
:10014000F8CFCF93DF9390E0FC01E65CFF4F249162
:10015000805D9F4FFC0184918823D1F090E0880F4F
:10016000991FFC01E25EFF4FA591B491FC01EC5D8B
:10017000FF4FC591D49161110EC09FB7F8948C9137
:10018000E22FE0958E238C932881E223E8839FBFA2
:10019000DF91CF9108958FB7F894EC91E22BEC9317
:1001A0008FBFF6CF3FB7F8948091650090916600BD
:1001B000A0916700B091680022B708B601FE05C0A3
:1001C0002F3F19F00196A11DB11D3FBFBA2FA92FD6
:1001D000982F8827BC01CD01620F711D811D911DD3
:1001E00046E0660F771F881F991F4A95D1F708953B
:1001F0001F920F920FB60F9211242F933F938F935C
:100200009F93AF93BF938091610090916200A09102
:100210006300B09164003091600020E3230F2D371C
:1002200058F54096A11DB11D209360008093610098
:1002300090936200A0936300B09364008091650086
:1002400090916600A0916700B09168000196A11D91
:10025000B11D8093650090936600A0936700B093F2
:100260006800BF91AF919F918F913F912F910F9017
:100270000FBE0F901F90189523EB230F4196A11DE1
:10028000B11DD2CF78948AB582608ABD8AB581606B
:100290008ABD83B7826083BF83B7816083BF89B71C
:1002A000826089BF80B7826080BF3298319A309A6D
:1002B000379A8CB580648CBD60E083E042DF61E0FA
:1002C00081E03FDF60E081E00FDF61E084E039DF63
:1002D00060E084E009DF61E082E033DF60E082E03B
:1002E00003DF60E080E02DDF10926B0010926F0062
:1002F00010926E0010926D0010926C0010927100BE
:100300001092700020E0E22E20E0F22E35E0D32E95
:1003100000917000109171000F5F1F4F10937100DA
:1003200000937000C0916E00D0916F00D595C79575
:10033000D0936F00C0936E0083E0AEDE019709F0AA
:100340004EC0C068D0936F00C0936E0080916E0065
:1003500090916F008F3F910509F044C081E0809338
:100360006D0061E0C1DE80E097DE019709F042C0D8
:1003700081E080936C0080916B00823009F468C04A
:10038000E0F5882309F445C0813009F455C00ADF3F
:100390002B013C0184E6882E912CA12CB12C02DF8C
:1003A0006419750986099709683E734081059105AE
:1003B000B0F381E0881A9108A108B10828EE420E36
:1003C00023E0521E611C711C81149104A104B1042C
:1003D00031F7E114F10409F49BCF12DE99CFCF7706
:1003E000DD27B0CF892B09F0BECF10926D0060E001
:1003F00081E0B8CF10926C00BECF843009F45CC0AD
:10040000B0F1853021F60436110509F610926B0023
:10041000BECF80916D00882309F4B9CF61E084E0FC
:1004200063DE60E082E060DE81E080936B0010922A
:10043000710010927000ABCF80916C00811104C0EC
:10044000093C1F4F09F0A3CF82E080936B009FCF40
:1004500080916D0081119BCF83E080936B00809130
:100460006C0090E090936A0080936900E0CFC091A7
:100470006C0080916D00882349F081E080936B00CF
:10048000D0E0D0936A00C093690081CF8091690069
:1004900090916A00892B11F0CC2319F0013311409F
:1004A00079F761E082E020DE84E080936B001092B7
:1004B000710010927000E4CF0C32114021F0809155
:1004C0006C00811164CFD0926B0060E084E00CDEA0
:0C04D00060E082E009DEABCFF894FFCFC3
:00000001FF
